:020000040800F2
:1000000040080020E9020008890400088B04000869
:100010008F04000893040008970400080000000003
:100020000000000000000000000000009B04000829
:100030009D040008000000009F040008A1040008BF
:10004000030300080303000803030008ED0400088D
:100050000303000803030008A304000803030008C7
:100060000303000803030008030300080303000858
:100070000303000803030008030300080303000848
:100080000303000803030008030300080303000838
:100090000303000803030008030300080303000828
:1000A0000303000803030008030300080303000818
:1000B0000303000803030008030300080303000808
:1000C00003030008030300080303000803030008F8
:1000D00003030008A5040008A704000803030008A0
:1000E000030300080303000803030008DFF80CD033
:1000F00003F0C2FD004800470D030008400800203F
:100100000CB50020019000906C48006840F48030ED
:100110006A49086000BF6948006800F40030009038
:100120000198401C0190009818B90198B0F5A06F93
:10013000F1D16248006800F4003010B10120009055
:1001400001E0002000900098012843D15C4800683D
:1001500040F010005A4908600846006820F003008B
:1001600008600846006840F0020008605348406894
:10017000524948600846406848600846406840F474
:10018000806048600846406820F47C10486008465B
:10019000406840F4502048600846006840F0807095
:1001A000086000BF4548006800F000700028F9D0E2
:1001B0004248406820F003004049486008464068D3
:1001C00040F00200486000BF3C48406800F00C006E
:1001D0000828F9D10CBD10B5FFF792FF10BD10B57E
:1001E0003648006840F0010034490860084640681D
:1001F000344908403149486008460068324908409F
:100200002E4908600846006820F4802008600846EF
:10021000406820F4FE0048604FF41F008860FFF73C
:10022000DAFF4FF000602949086010BD10B50021C9
:1002300000200022214B5B6803F00C0121B104294E
:1002400006D0082928D107E0214B224C236027E063
:10025000214B204C236023E0184B5B6803F47010A3
:10026000164B5B6803F48032022303EB904022B903
:100270001A4B4343174C23600DE0104B5B6803F4AB
:10028000003323B1164B4343124C236003E0124B5F
:100290004343104C236003E00D4B0E4C236000BF22
:1002A00000BF064B5B68C3F303130E4CE15C094BC4
:1002B0001B68CB40074C236010BD000000100240BB
:1002C000002002400000FFF8FFFFF6FE08ED00E00E
:1002D00000127A0000000020001BB70000093D005A
:1002E000808D5B00040000200648804706480047D8
:1002F000FEE7FEE7FEE7FEE7FEE7FEE7FEE7FEE7D6
:10030000FEE7FEE7DF010008ED000008F0B046A1BF
:1003100003C9CDE9020102F03DFE02F0B5FE02F094
:1003200047F802F003FD8F2142F20F7002F0CCFD7E
:1003300002F01AFE03F0C3F83DA003F0BFFC72E028
:100340006FA9E32002F0E7F94FF4FA7003F076F8B2
:100350006EA9E52002F0DFF9BDF8BC2139A108A89B
:1003600003F0BCFCBDF8B82136A106A803F0B6FC2A
:10037000BDF8BC01232804DD0121002002F0B8FCF7
:1003800003E00121084602F0B3FC08212E4800F0EA
:1003900016FA10B13120059001E0302005902B486D
:1003A0000078012802D13120049001E0302004902F
:1003B00002F0B9FE05A804AB06AA08A900900AA895
:1003C00002F077FF0446E2B20AA9214802F0B5FE26
:1003D0000AA920A003F072FC4FF47A7003F02EF803
:1003E000224923A003F06AFC204800789DF80810F9
:1003F000884210D14FF49670224908804FF47A70E9
:1004000003F01CF840F2DF201E4908800121084655
:1004100002F0C7FC03E00821002002F0C2FC41F218
:10042000883003F00BF88BE76F70656E00000000FA
:100430004553503832363620696E6974206F7665C0
:10044000720D0A0025640000000C01402800002005
:100450000044004073656E642048545450206D730E
:10046000673A0D0A25730D0A000000003C000020C9
:1004700072637620726573706F6E73653A0D0A252C
:10048000730D0A0034040040704700BFFEE700BF50
:10049000FEE700BFFEE700BFFEE77047704770470A
:1004A00070477047704710B51149098801F00F0176
:1004B00019B10F49091D088817E00D49098801F095
:1004C000200191B10A49091D08880A4A11684A1C8D
:1004D000084C2260084A50542146096840F2FF3215
:1004E000914202D300212246116010BD70470000E6
:1004F00000440040340000203C000020314901430A
:10050000314A1160704770B5002100230F22C47872
:1005100004B32D4C246804F4E064C4F5E064210ABB
:10052000C1F10403CA40447804FA03F1847814400A
:1005300021430901254C0678A155047804F01F05D4
:100540000124AC4005786D11AD0005F1E025C5F83A
:10055000004109E0047804F01F050124AC401C4D63
:100560000678761145F8264070BD1A4A0A400243C3
:10057000154B1B1F1A60704739B1134A121D1268C0
:100580000243114B1B1D1A6006E00F4A121D126830
:1005900082430D4B1B1D1A607047042808D14FF091
:1005A000E021096941F004014FF0E022116107E008
:1005B0004FF0E021096921F004014FF0E0221161C0
:1005C000704700000000FA050CED00E000E400E0D8
:1005D00080E100E080FFFF1F10B50446CC48844254
:1005E00008D10121042000F02FFD0021042000F09B
:1005F0002BFD46E0C748844208D10121082000F0C5
:1006000023FD0021082000F01FFD3AE0C24884428B
:1006100008D10121102000F017FD0021102000F06A
:1006200013FD2EE0BD48844208D10121202000F0B6
:100630000BFD0021202000F007FD22E0B848844295
:1006400008D10121402000F0FFFC0021402000F0F3
:10065000FBFC16E0B348844208D10121802000F061
:10066000F3FC0021802000F0EFFC0AE0AE48844259
:1006700007D10121801500F0E7FC0021A01500F052
:10068000E3FC10BD10B50121084600F0DDFC00219F
:10069000012000F0D9FC10BD2DE9F04102460025F3
:1006A0000026002000230024002791F803C00CF04E
:1006B0000F0591F803C00CF0100CBCF1000F03D033
:1006C00091F802C04CEA050591F800C0BCF1000F9A
:1006D00031D0146800202BE04FF0010C0CFA00F32D
:1006E000B1F800C00CEA03069E4220D183004FF00F
:1006F0000F0C0CFA03F7BC4305FA03FC4CEA0404A4
:1007000091F803C0BCF1280F06D14FF0010C0CFA90
:1007100000FCC2F814C00AE091F803C0BCF1480F15
:1007200005D14FF0010C0CFA00FCC2F810C0401CBF
:100730000828D1D31460B1F800C0BCF1FF0F34DD3C
:10074000546800202EE000F1080C4FF0010808FA70
:100750000CF3B1F800C00CEA03069E4221D18300DD
:100760004FF00F0C0CFA03F7BC4305FA03FC4CEAFC
:10077000040491F803C0BCF1280F05D100F1080C66
:1007800008FA0CF8C2F8148091F803C0BCF1480FC5
:1007900007D100F1080C4FF0010808FA0CF8C2F874
:1007A0001080401C0828CED35460BDE8F0814FF67D
:1007B000FF710180022181700421C17070470246DF
:1007C000002093680B400BB1012000E0002070472F
:1007D0000146886880B2704702460020D3680B400B
:1007E0000BB1012000E0002070470146C86880B2CC
:1007F000704701617047416170470AB1016100E0D3
:1008000041617047C16070474FF480320A43826192
:100810008161826182698269704702460020434B90
:1008200018684FF68073184040EA021008433F4BA7
:10083000186070473E49C8617047F0B50A4600230A
:1008400000240021002500F00046B6F1004F02D13F
:10085000364EF16901E0354E7168C0F3034583B24D
:1008600000F44016B6F5401F08D121F070612F4EFC
:10087000766826F070662D4F7E6012E000F48016D8
:10088000B6F5801F06D1032606FA05F4A14341F010
:10089000706106E0460D360103FA06F6B14341F0F9
:1008A000706122B1460D360103FA06F6314300F0BD
:1008B0000046B6F1004F02D11C4EF16101E01B4E23
:1008C0007160F0BD30B500228B071C0F0F2303FAB7
:1008D00004F2164B08338C1053F824309343134C16
:1008E00008348D1044F8253023468C1053F82430FA
:1008F0008C07240F00FA04F423430C4C08348D10A9
:1009000044F8253030BD0A49DC31086070470000EA
:1009100000080140000C014000100140001401409B
:1009200000180140001C014000200140000001406F
:100930000000204210B50446F748844209D1012145
:10094000480500F08EFB00214FF4001000F089FBF9
:1009500008E00121880500F084FB00214FF48000AD
:1009600000F07FFB10BD2DE9F04385B004460D4635
:100970000026B1460427DFF8A483A6884FF6C0708E
:100980000640684600F0D9FADDF80880E448B8FB74
:10099000F0F01FFA80F946EA0906A68020884FF693
:1009A000FE71084020800026DE49286888420CD865
:1009B00028684000B8FBF0F087B2042F00DA042763
:1009C0003E4309F10100208427E0E8884BF6FF71DF
:1009D000884206D1286800EB4000B8FBF0F087B2EF
:1009E00009E0286800EBC00101EB0010B8FBF0F053
:1009F00087B247F48047C7F30B0008B947F00107F7
:100A000047F4004006434FF4967009FB00F04FF4A2
:100A10007A7190FBF1F0401C2084A683208840F07E
:100A20000100208026884FF6F5300640A8886989A5
:100A3000084306432680A88929890843208105B0F8
:100A4000BDE8F08341F288310160002181804BF6DE
:100A5000FF71C1800021018141814FF4804181817A
:100A6000704721B1028842F00102028004E002884E
:100A70004FF6FE731A400280704721B1828842F41B
:100A80000062828004E082884FF2FF731A40828005
:100A9000704721B1828842F48052828004E08288CB
:100AA0004EF6FF731A408280704721B1028842F4EB
:100AB0008072028004E002884FF6FF631A400280D1
:100AC000704721B1028842F40072028004E002887B
:100AD0004FF6FF531A400280704721B1028842F45A
:100AE0008062028004E002884FF6FF331A400280E1
:100AF00070470A46002181894FF60173194002F0C0
:100B0000FE0319438181704721B1828942F00102BD
:100B1000828104E082894FF6FE731A408281704719
:100B200021B1028842F04002028004E002884FF6C0
:100B3000BF731A40028070471AB183880B438380C9
:100B400002E083888B4383807047018270470146AF
:100B5000088AC0B2704712B141F0010102E04FF6BD
:100B6000FE7319400182704708B5024600200090CC
:100B700000920098084400900098008808BD21B1B8
:100B8000028842F40042028003E00288C2F30E02AF
:100B900002807047B1F5006F04D1028842F4006210
:100BA000028004E002884FF2FF731A40028070470F
:100BB000B1F5005F04D1028842F40052028004E0E3
:100BC00002884DF6FF731A400280704721B10288F7
:100BD00042F48052028004E002884EF6FF731A400D
:100BE00002807047B1F5006F04D1028842F40062C0
:100BF000028004E002884FF2FF731A4002807047BF
:100C000021B1028842F02002028004E002884FF6FF
:100C1000DF731A40028070470146088B001270474C
:100C200021B1028842F01002028004E002884FF6EF
:100C3000EF731A400280704721B9028842F08002A7
:100C4000028004E002884FF67F731A4002807047EA
:100C5000B1F5804F05D0828B4BF6FF731A4082832B
:100C600003E0828B42F480428283704770B5024673
:100C70000024002500230020958A138B1B0445EADD
:100C8000030626F07F4404EA01068E4201D10120CA
:100C900000E0002070BD10B50146002000230022B6
:100CA0008B8A0A8B120443EA020424F07F4010BDB1
:100CB0000CB50246002000230193009300920B0F15
:100CC000019321F07F41019B1BB1009B14330093E2
:100CD00003E0090C009B18330093009B1B680B403A
:100CE0000BB1012000E000200CBD002221F07F426A
:100CF000D3438382704730B5024600200023948896
:100D000001F0E06504EA154321F07F41948A0C402C
:100D100054B14BB1012008E00054004000127A00A9
:100D200040420F00A0860100002030BD002221F0CB
:100D30007F42D34383827047DF48006840F0010060
:100D4000DD49086008464068DC490840DA494860E7
:100D500008460068DA490840D74908600846006834
:100D600020F4802008600846406820F4FE004860B7
:100D70004FF41F0088607047CF49096821F4803123
:100D8000CD4A11601146096821F480211160B0F547
:100D9000803F03D0B0F5802F0ED106E0C649096828
:100DA00041F48031C44A116007E0C349096841F445
:100DB000A021C14A116000E000BF00BF704710B51C
:100DC00001460022002300204A11012A02D1BA4C18
:100DD000236806E0022A02D1B74C236A01E0B64C30
:100DE000636A01F01F02012494401C400CB10120F1
:100DF00000E0002010BD38B5002000900024002540
:100E000000BF3120FFF7DBFF05460098401C009033
:100E10000098B0F5A06F01D0002DF2D03120FFF77F
:100E2000CEFF08B1012400E00024204638BD014671
:100E30000020A14A106820F0F80040EAC1001060CC
:100E40007047A04908607047024600209A4B5868D6
:100E500020F47C1042EA01031843974B5860704716
:100E600098490866704701460020934A506820F070
:100E700003000843506070478F48406800F00C0042
:100E80007047014600208C4A506820F0F00008436B
:100E90005060704701460020874A506820F4E060A7
:100EA00008435060704701460020834A506820F490
:100EB000605040EAC1005060704729B17E4A527AC2
:100EC00002437D4B5A7204E07B4A527A82437A4B4A
:100ED0005A7270477B49D83108607047014600203C
:100EE000754A506820F44040084350607047002124
:100EF000714A20321170704A82F82010012802D005
:100F000004280AD104E001216B4A2032117005E067
:100F10000521694A2032117000E000BF00BF704710
:100F20006949086070476449096A0143624A11626D
:100F30007047654944390860704730B50021002288
:100F4000002400235C4D6D6805F00C0121B10429DB
:100F500005D0082923D105E05C4D056022E05C4DF9
:100F600005601FE0544D6D6805F47012524D6D68B8
:100F700005F48034022505EB92421CB9554D5543CA
:100F800005600BE04C4D6D6805F400351DB1524D08
:100F90005543056002E04E4D5543056002E04B4D60
:100FA000056000BF00BF444D6D6805F0F001090900
:100FB0004A4D6B5C0568DD4045603F4D6D6805F44A
:100FC000E061090A454D6B5C4568DD4085603A4D3E
:100FD0006D6805F46051C90A404D6B5C4568DD40A1
:100FE000C560354D6D6805F44041890B3C4D6B5C27
:100FF000C568B5FBF3F5056130BD29B12E4A5269CC
:1010000002432D4B5A6104E02B4A526982432A4B1A
:101010005A61704729B1284A92690243264B9A6166
:1010200004E0254A92698243234B9A61704729B1B3
:10103000214AD2690243204BDA6104E01E4AD26998
:1010400082431D4BDA61704729B11B4AD2680243C3
:10105000194BDA6004E0184AD2688243164BDA6012
:10106000704729B1144A12690243134B1A6104E014
:10107000114A12698243104B1A6170471249403974
:10108000086070470F49C86470470B49C8717047C2
:101090000948406A40F0807007494862704701463D
:1010A0000020054A92680A400AB1012000E00020B1
:1010B0007047014988727047001002400000FFF835
:1010C000FFFFF6FE000042428004424200127A0016
:1010D000001BB70000093D00808D5B00140000205C
:1010E0002400002010B50446FB48844209D10121A8
:1010F0008803FFF7A9FF00214FF48040FFF7A4FF0A
:1011000032E0F648844209D101214804FFF7A9FFE3
:1011100000214FF40030FFF7A4FF25E0F04884429F
:1011200009D101218804FFF79CFF00214FF48020A2
:10113000FFF797FF18E0EB48844209D10121C8046A
:10114000FFF78FFF00214FF40020FFF78AFF0BE02D
:10115000E548844208D101210805FFF782FF0021FC
:101160004FF48010FFF77DFF10BD2DE9F04786B0EA
:1011700005460E460024A24600BFA1460027B089BE
:1011800000B100BF2F462C8A4CF6FF700440F08857
:1011900004432C82AC894EF6F3100440B0883189A8
:1011A0000843718908430443AC81AC8A4FF6FF4081
:1011B0000440B0890443AC8201A8FFF7BEFEC648D4
:1011C000874202D1DDF810A001E0DDF80CA0A8896B
:1011D00000F4004040B10AEBCA0000EB0A1031688D
:1011E0004900B0FBF1F807E00AEBCA0000EB0A1077
:1011F00031688900B0FBF1F86420B8FBF0F004011D
:101200002009642101FB1089A88900F4004040B145
:10121000322000EBC900B0FBF1F000F007000443FE
:1012200008E0322000EB09106421B0FBF1F000F07F
:101230000F0004432C8106B0BDE8F0874FF416512F
:10124000016000218180C18001810C214181002148
:101250008181704710B502460020108A4FF2FF03CB
:1012600018400B884C8823438C882343CC88234325
:101270001843108210BD0021018041808180C1800F
:10128000704721B1828942F40052828104E0828950
:101290004DF6FF731A4082817047F0B50346002473
:1012A00000260025002040F66A17B94200D100BF91
:1012B0001846C1F3421401F01F06012707FA06F58C
:1012C000012C01D10C3004E0022C01D1103000E0DF
:1012D00014301AB107682F43076002E00768AF4374
:1012E0000760F0BD1AB1838A0B43838202E0838AD0
:1012F0008B4383827047028A4FF6F0731A40028252
:10130000028A0A430282704782894FF2FF731A40B1
:10131000828182890A438281704721B1828942F0A9
:101320000202828104E082894FF6FD731A408281B5
:101330007047028A4FF6DF731A400282028A0A431C
:101340000282704721B1028A42F48042028204E0A4
:10135000028A4BF6FF731A4002827047C1F30802FB
:101360008280704701468888C0F3080070478189F1
:1013700041F0010181817047028BD2B20283028B5E
:1013800042EA012202837047028B02F47F42028309
:10139000028B0A430283704721B1828A42F0200205
:1013A000828204E0828A4FF6DF731A40828270479D
:1013B00021B1828A42F01002828204E0828A4FF6D2
:1013C000EF731A408282704721B1828A42F008028C
:1013D000828204E0828A4FF6F7731A408282704755
:1013E00021B1828942F40042828103E08289C2F302
:1013F0000E028281704721B1828A42F400628282A9
:1014000004E0828A4FF2FF731A4082827047828A18
:101410004FF6FB731A408282828A0A4382827047A7
:1014200021B1828A42F00202828204E0828A4FF66F
:10143000FD731A408282704702460020B1F5007F9A
:1014400000D100BF13880B400BB1012000E0002049
:10145000704701F40072B2F5007F00D100BFCA43AB
:101460000280704770B5024600240023002500204A
:1014700040F66A16B14200D100BFC1F3421501F037
:101480001F03012606FA03F3012D02D1968933408A
:1014900006E0022D02D1168A334001E0968A3340DD
:1014A0000C12012606FA04F41688344013B10CB16C
:1014B000012000E0002070BD10B50022002340F69E
:1014C0006A14A14200D100BF0A1201249440A3B2C1
:1014D000DC43048010BD000000380140004400409F
:1014E00000480040004C00400050004010B5044649
:1014F000FE48844208D10121C014FFF7A5FD002158
:10150000E014FFF7A1FDC4E0B4F1804F08D1012140
:101510000846FFF7A6FD00210120FFF7A2FDB8E075
:10152000F348844208D101210220FFF79AFD0021EF
:101530000220FFF796FDACE0EE48844208D101217D
:101540000420FFF78EFD00210420FFF78AFDA0E0B4
:10155000E948844208D101210820FFF782FD0021DB
:101560000820FFF77EFD94E0E448844208D1012181
:101570001020FFF776FD00211020FFF772FD88E0B4
:10158000DF48844208D101212020FFF76AFD0021B5
:101590002020FFF766FD7CE0DA48844208D1012173
:1015A0004014FFF751FD00216014FFF74DFD70E07E
:1015B000D548844209D10121C804FFF745FD002127
:1015C0004FF40020FFF740FD63E0D048844209D18A
:1015D00001210805FFF738FD00214FF48010FFF7C7
:1015E00033FD56E0CA48844209D101214805FFF77E
:1015F0002BFD00214FF40010FFF726FD49E0C54800
:10160000844208D101214020FFF72BFD002140201A
:10161000FFF727FD3DE0C048844208D1012180202A
:10162000FFF71FFD00218020FFF71BFD31E0BB48C5
:10163000844208D101218015FFF713FD0021A01578
:10164000FFF70FFD25E0B648844209D101210804C7
:10165000FFF7FAFC00214FF48030FFF7F5FC18E0AB
:10166000B048844209D101214804FFF7EDFC002174
:101670004FF40030FFF7E8FC0BE0AB48844208D1A0
:1016800001218804FFF7E0FC00214FF48020FFF7E0
:10169000DBFC10BD00220288944B98420ED0994B7F
:1016A00098420BD0B0F1804F08D0914B984205D0B2
:1016B000904B984202D0904B984204D14FF68F73D2
:1016C0001A404B881A438D4B984207D08C4B984256
:1016D00004D04FF6FF431A40CB881A4302808B8810
:1016E00083850B880385814B98420BD0854B9842AC
:1016F00008D08B4B984205D08A4B984202D08A4B37
:10170000984201D10B7A038601238382704770B51A
:10171000002400220023058C4FF6FE763540058418
:10172000028C8388048B4FF68F752C40B51E2C409D
:101730000D882C43751E2A400D892A434D882A4363
:101740006A4DA8420BD06F4DA84208D0744DA842F4
:1017500005D0744DA84202D0734DA84213D14FF664
:10176000F7752A404D892A434FF6FB752A408D882C
:101770002A434FF6FF652B404FF6FF552B408D89CE
:101780002B43CD892B4383800483CD8885860284B7
:1017900070BD70B5002400220023058C4FF6EF7653
:1017A00035400584028C8388048B48F6FF752C40F5
:1017B0004FF6FF452C400D884FF6FF7606EA0525CB
:1017C0002C434FF6DF752A400D8906EA05152A439A
:1017D0004D8806EA05152A43444DA84202D0494DDA
:1017E000A8421DD14FF67F752A404D894FF6FF76EE
:1017F00006EA05152A434FF6BF752A408D8806EA8A
:1018000005152A434FF6FF352B404FF2FF752B404D
:101810008D8906EA85052B43CD8906EA85052B438C
:1018200083800483CD880587028470BD70B5002451
:1018300000220023058C4FF6FF6635400584028C9C
:101840008388848B4FF68F752C404FF6FC752C40A7
:101850000D882C434FF6FF552A400D894FF6FF7631
:1018600006EA05252A434D8806EA05252A431F4D29
:10187000A84202D0234DA8421DD14FF2FF752A4045
:101880004D894FF6FF7606EA05252A434FF6FF35C8
:101890002A408D8806EA05252A434EF6FF752B401F
:1018A0004DF6FF752B408D8906EA05152B43CD8932
:1018B00006EA05152B4383808483CD8885870284BF
:1018C00070BD70B5002200230024058C4EF6FF7613
:1018D00035400584038C8488828B48F6FF752A4046
:1018E0004FF6FF452A400D8820E00000002C014003
:1018F0000004004000080040000C004000100040C0
:101900000014004000340140004C014000500140F0
:101910000054014000180040001C0040002000401E
:101920000040014000440140004801404FF6FF766E
:1019300006EA05252A434DF6FF752B400D8906EA78
:1019400005352B434D8806EA05352B43FA4DA84251
:1019500002D0FA4DA84208D14BF6FF752C408D8974
:101960004FF6FF7606EA85152C4384808283CD8866
:10197000A0F84050038470BD828B4FF2FF331A40B1
:101980008283828B4FF6FF7303EA01231A4382831B
:101990007047F0B50C461546002200210026078C42
:1019A0004EF6FF7C07EA0C070784828B018C4FF60A
:1019B000FF7707EA043640F6FF473A404FF6FF77D5
:1019C00007EA05273A434FF6FF7707EA03373A431A
:1019D000D94FB8420ED0D94FB8420BD0B0F1804F9A
:1019E00008D0D74FB84205D0D64FB84202D0D64F14
:1019F000B84206D14DF6FF77394046F48057394357
:101A000005E047F6FF57394044F480573943828355
:101A10000184F0BD828B4FF6F3731A408283828B70
:101A20000A4382837047F0B50C4615460022002118
:101A30000026078C4FF6FF6C07EA0C070784828BA1
:101A4000018C4FF6FF7707EA04264FF60C773A40F1
:101A50004FF6FF7707EA03172F433A43B64FB842D2
:101A60000ED0B64FB8420BD0B0F1804F08D0B44F73
:101A7000B84205D0B34FB84202D0B34FB84206D1F6
:101A80004FF6FF57394046F48077394305E04FF26F
:101A9000FF57394044F48077394382830184F0BD95
:101AA000028B4FF2FF331A400283028B4FF6FF7313
:101AB00003EA01231A4302837047F0B50C4615462A
:101AC000002200210026078C4FF6EF7C07EA0C0766
:101AD0000784028B018C4FF6FF7707EA041640F665
:101AE000FF473A404FF6FF7707EA03373A434FF68E
:101AF000FF7707EA05273A438F4FB8420ED08F4F42
:101B0000B8420BD0B0F1804F08D08D4FB84205D00D
:101B10008C4FB84202D08C4FB84206D14FF6DF77D7
:101B2000394046F01007394305E04FF65F773940FA
:101B300044F01007394302830184F0BD028B4FF655
:101B4000F3731A400283028B0A4302837047F0B595
:101B50000C46154600220021068C4FF6FE773E40CB
:101B60000684028B018C4FF60C7632407E1C06EA0E
:101B700003162E433243704EB0420ED06F4EB04229
:101B80000BD0B0F1804F08D06D4EB04205D06D4EF5
:101B9000B04202D06C4EB04206D14FF6FD763140D5
:101BA00044F00106314305E04FF6F576314044F04C
:101BB0000106314302830184F0BD70B505460C4631
:101BC0005D4885420ED05D4885420BD0B5F1804F0F
:101BD00008D05B48854205D05A48854202D05A4811
:101BE000854200D100E000BF208850B92389A28837
:101BF00061882846FFF7ABFFE1882846FFF79EFF84
:101C000025E0208804280AD12389A28861882846F3
:101C1000FFF753FFE1882846FFF742FF17E02088CF
:101C200008280AD12389A28861882846FFF7FBFE8D
:101C3000E1882846FFF7EEFE09E02389A288618843
:101C40002846FFF7A6FEE1882846FFF795FE70BDFF
:101C50002DE9F04105460C4600260127608808B9A9
:101C6000022600E00026A088012801D1022700E01A
:101C700001272088A0B92389A28861882846FFF718
:101C800066FFE1882846FFF759FF23893A46314627
:101C90002846FFF712FFE1882846FFF701FF13E00F
:101CA0002389A28861882846FFF707FFE188284634
:101CB000FFF7F6FE23893A4631462846FFF747FFED
:101CC000E1882846FFF73AFFBDE8F0810A884B8893
:101CD0001A438B881A43CB881A430B891A434B89C2
:101CE0001A438B891A43A0F8442070474FF6FF71BE
:101CF000818000210180C1804180017270470021F4
:101D0000018041808180C180018141818181C181C7
:101D10007047002101804180012181800021C18024
:101D2000018170470021018041808180C180018153
:101D30004181818170470000002C01400034014046
:101D40000004004000080040000C004021B102885F
:101D500042F00102028004E002884FF6FE731A404E
:101D60000280704731B1B0F8442042F40042A0F83C
:101D7000442005E0B0F84420C2F30E02A0F844204D
:101D800070471AB183890B43838102E083898B43B7
:101D9000838170478182704741EA0203A0F848308E
:101DA00070471AB183890B43838102E083898B4397
:101DB0008381704701894FF6F872114001817047A5
:101DC0000A46002101894FF68F73194011430181A2
:101DD000704730B504460D4629462046FFF7F0FF10
:101DE000208940F00700208130BD2DE9F0410446F4
:101DF0000D4616461F46602D06D13B460122314650
:101E00002046FFF75AFE05E03B46012231462046B8
:101E1000FFF79DFE29462046FFF7D2FF208940F0BC
:101E200007002081BDE8F08130B50C460021018912
:101E3000C9B24FF6FF7505EA03251543254329432B
:101E4000018130BD2DE9F04105460E461746984602
:101E5000002443463A4631462846FFF7E5FF2C89E1
:101E60004FF6F870044044F007044FF68F700440BA
:101E700044F070042C81BDE8F081F0B504460D46B5
:101E800016461F463B46324629462046FFF7CCFF02
:101E9000208940F480402081F0BD01858282704716
:101EA0000A46002101884FF68F73194011430180C3
:101EB0007047F0B50C4615461E460021002200234F
:101EC0000189028B038C4FF6F877394021434FF696
:101ED000FC473A4040F201173A434FF6DD773B406A
:101EE0004FF6FF7707EA06172F433B430181028332
:101EF0000384F0BD0A460021018B4FF68F73194011
:101F00001143018370470A460021018B48F6FF7395
:101F100019404FF6FF7303EA022319430183704708
:101F20000A460021818B4FF68F731940114381833C
:101F300070470A460021818B48F6FF7319404FF61F
:101F4000FF7303EA022319438183704721B102889A
:101F500042F08002028004E002884FF67F731A404C
:101F60000280704721B1828842F00402828004E03E
:101F700082884FF6FB731A408280704721B18288B5
:101F800042F00802828004E082884FF6F7731A401C
:101F90008280704721B1828842F00102828004E091
:101FA00082884FF6FE731A40828070470A460021ED
:101FB000018B4FF6F77319401143018370470A46AE
:101FC0000021018B4FF2FF7319404FF6FF7303EAB4
:101FD00002231943018370470A460021818B4FF683
:101FE000F77319401143818370470A460021818BA2
:101FF0004FF2FF7319404FF6FF7303EA02231943B0
:10200000818370470A460021018B4FF6FB7319400C
:102010001143018370470A460021018B4FF6FF33BD
:1020200019404FF6FF7303EA0223194301837047F7
:102030000A460021818B4FF6FB73194011438183BF
:1020400070470A460021818B4FF6FF3319404FF647
:10205000FF7303EA02231943818370470A46002174
:10206000018B4FF67F7319401143018370470A4675
:102070000021018BC1F30E014FF6FF7303EA022327
:102080001943018370470A460021818B4FF67F7305
:1020900019401143818370470A460021818BC1F3A7
:1020A0000E014FF6FF7303EA022319438183704741
:1020B0000A460021018C4FF6FD731940114301843B
:1020C00070470A460021018C4FF6F77319401143FF
:1020D000018470470A460021018C4FF6DF731940D6
:1020E0004FF6FF7303EA02131943018470470A464F
:1020F0000021018C4FF67F7319404FF6FF7303EAFE
:1021000002131943018470470A460021018C4FF6DF
:10211000FF5319404FF6FF7303EA0223194301846A
:1021200070470A460021018C4FF2FF7319404FF6A9
:10213000FF7303EA02231943018470470A46002112
:10214000018C4DF6FF7319404FF6FF7303EA02331B
:1021500019430184704730B5002301248C40A3B299
:10216000048C9C430484048C02FA01F5ADB22C4328
:10217000048430BD30B5002304248C40A3B2048C09
:102180009C430484048C02FA01F5ADB22C43048410
:1021900030BD70B5034600200024184618300125D4
:1021A0008D40ACB21D8CA5431D8409B1082909D10D
:1021B00000EB6100056825F07005056005681543B2
:1021C00005600EE00D1FC5F34E052844056825F493
:1021D000E045056005684FF6FF7606EA02263543BE
:1021E000056070BD21B1028842F00202028004E065
:1021F00002884FF6FD731A400280704721B10288B1
:1022000042F00402028004E002884FF6FB731A4099
:102210000280704721B1828842F08002828004E00F
:1022200082884FF67F731A408280704702884FF68B
:10223000F7731A40028002880A430280704782883E
:102240004FF68F731A40828082880A4382807047DB
:1022500002894FF6F8731A40028102890A4302810B
:10226000704702894FF67F731A40028102890A4340
:1022700002817047818470478185704781867047ED
:102280000187704781877047A0F840107047028827
:102290004FF6FF431A40028002880A4302807047CB
:1022A0000146888E70470146088F70470146888F27
:1022B00070470146B1F8400070470146888C70476E
:1022C0000146088D704702460020138A0B400BB16F
:1022D000012000E000207047CA430282704730B5F9
:1022E0000246002000230024158A05EA010395898F
:1022F00005EA010413B10CB1012000E0002030BD5B
:10230000CA4302827047000038B50446BB48844285
:102310001BD101218805FEF78AFE01210820FEF766
:1023200079FE2722B649B7A001F0C8FC4FF44060FF
:10233000ADF8000003208DF802001C208DF803008A
:102340006946B248FEF7A8F900BF38BD1FB504467C
:10235000AA48844225D12046FEF7ECFA0021204607
:10236000FEF77FFB0020ADF804004BF6FF70ADF8E0
:1023700006000020ADF808002015ADF80A000001A5
:10238000ADF80C00A248009001212046FEF769FB41
:1023900069462046FEF7E7FA01212046FEF79DFB3D
:1023A00000BF1FBD10B59B499B4801F087FC10BDC5
:1023B00010B56622994993A001F080FC8F48FFF781
:1023C000A3FF8E48FFF7C2FFFFF7ECFF10BD2DE91A
:1023D000F04107460D4616461C464FF6FF7000EAD0
:1023E000450801213846FEF778FB01213846FEF703
:1023F0005CFB00BF8A493846FEF738FC0028F9D05C
:1024000008F0FF0100223846FEF7A5FB00BF854912
:102410003846FEF72BFC0028F9D001213846FEF79C
:1024200020FB31463846FEF790FB00BF7D49891CF2
:102430003846FEF71BFC0028F8D05CB121783846FE
:10244000FEF783FB00BF7749891C3846FEF70EFC78
:102450000028F8D001213846FEF733FB0020BDE804
:10246000F0812DE9F04781460C4615461E464FF691
:10247000FF7000EA440701214846FEF72EFB0121C8
:102480004846FEF712FB00BF65494846FEF7EEFBE3
:102490000028F9D0F9B200224846FEF75CFB00BFE5
:1024A00060494846FEF7E2FB0028F9D02946484635
:1024B000FEF74BFB00BF5B49891C4846FEF7D6FB85
:1024C0000028F8D001214846FEF7EFFA04E0F9B2FF
:1024D00001224846FEF73FFB51494846FEF7C6FB3E
:1024E0000028F4D000BF4E49491C4846FEF7BEFB09
:1024F0000028F8D000BF4A493F314846FEF7B6FBF6
:102500000028F8D04846FEF722FB804600214846C6
:10251000FEF7E3FA01214846FEF7D3FA86F8008079
:102520000020BDE8F0872DE9F04780460C461646AE
:102530001F46089D01214046FEF7CFFA0121404683
:10254000FEF7B3FA70064FEA106900BF34494046FF
:10255000FEF78CFB0028F9D0002249464046FEF7E2
:10256000FAFA00BF2F494046FEF780FB0028F9D059
:1025700039464046FEF7E9FA00BF2A49891C404621
:10258000FEF774FB0028F8D001214046FEF78DFAD3
:1025900000BF23494046FEF769FB0028F9D001221D
:1025A00049464046FEF7D7FA00BF1D49491C404640
:1025B000FEF75CFB0028F8D016E0012D07D10021C2
:1025C0004046FEF78AFA01214046FEF77AFA14499E
:1025D0003F314046FEF74AFB30B14046FEF7B7FABE
:1025E0002070641C681EC5B2002DE6D10121404652
:1025F000FEF773FA0020BDE8F087000000580040A5
:10260000E045000825732025640D0A00000C0140F8
:10261000A08601000446000858480008F745000855
:10262000010003008200070010B50023FE224021B4
:10263000FE48FFF7CCFE10BD08B5002000906B46A9
:10264000E7224021F948FFF70CFF9DF8000008BD84
:1026500001B56B46E6224021F448FFF7B8FE08BDFD
:1026600070B503460C4615460021002213E098562B
:10267000414008260BE001F0800020B1312080EAC3
:10268000410041B201E0480041B2701E46B2002E46
:10269000F1DC501C42B2A242E9DBA94201D0012088
:1026A00070BD0020FCE72DE9F84F82462AF0030AAE
:1026B000504601F0FEF8009001F014F98046DC4A23
:1026C000DC4B01F07BF806460022DB4B01F070F892
:1026D000044601F01AF983465846BDE8F88F2DE903
:1026E000F84F82462AF0030A504601F0D9F80090CC
:1026F00001F0F8F88046D14AD14B01F05FF8064668
:10270000D04AD14B00F0B3FF044601F0FEF88346F7
:102710005846BDE8F88F2DE9F04F87B005460C46C6
:102720006FF07F0A0121C148FEF7D7F90121BF48A8
:10273000FEF7BBF900BFC549BC48FEF797FA002871
:10274000F9D00AF0FF010022B848FEF704FA00BFF2
:10275000BF49B648FEF78AFA0028F9D02946B3489F
:10276000FEF7F3F900BFBA49891CB048FEF77EFABC
:102770000028F8D0962000F061FE0121AB48FEF75A
:1027800094F900BFB149A948FEF770FA0028F9D0C2
:10279000962000F053FE0AF0FF010122A348FEF745
:1027A000DAF900BFA949491CA048FEF75FFA0028E2
:1027B000F8D04FF4967000F041FE00BFA3493F31BE
:1027C0009A48FEF753FA0028F8D09848FEF7BFF968
:1027D00040B28DF8180000BF9C493F319348FEF786
:1027E00045FA0028F8D09148FEF7B1F940B28DF8CB
:1027F000190000BF95493F318C48FEF737FA002891
:10280000F8D08A48FEF7A3F94FFA80F901218748EA
:10281000FEF757F94A46022106A8FFF721FF9DF966
:1028200019009DF8181000EB012086B2E32D1AD193
:1028300030B2FFF754FF0590059801F053F80746B2
:1028400088464A46022106A8FFF70AFF8346CDE9DB
:10285000027800909DF919309DF918207D497EA0DD
:1028600001F02CFA19E03046FFF71DFF059005989E
:1028700001F038F8074688464A46022106A8FFF7C5
:10288000EFFE8346CDE9027800909DF919309DF95D
:10289000182070497BA001F011FA1CB1059801F0D5
:1028A0000DF8208022886B4982A001F007FA0020F1
:1028B00007B0BDE8F08F2DE9F0410446002700265F
:1028C0006FF07F0501215948FEF707F901215748AC
:1028D000FEF7EBF800BF5D495448FEF7C7F9002842
:1028E000F9D0E9B200225148FEF735F900BF584946
:1028F0004E48FEF7BBF90028F9D0FA214B48FEF705
:1029000024F900BF5249891C4848FEF7AFF9002856
:10291000F8D00F214548FEF718F900BF4C49891C33
:102920004248FEF7A3F90028F8D0642000F086FDA5
:1029300001213E48FEF7B9F800BF44493B48FEF785
:1029400095F90028F9D0E9B201223848FEF703F9D9
:1029500000BF3E49491C3548FEF788F90028F8D0E9
:1029600000BF3A493F313148FEF780F90028F8D0DE
:102970002E48FEF7ECF8607100BF34493F312B4818
:10298000FEF774F90028F8D02848FEF7E0F800BFF9
:102990002E493F312548FEF769F90028F8D0234831
:1029A000FEF7D5F8207100BF28493F311F48FEF7D8
:1029B0005DF90028F8D01D48FEF7C9F800BF23498B
:1029C0003F311A48FEF752F90028F8D01748FEF7B1
:1029D000BEF8E07000BF1D493F311448FEF746F9CC
:1029E0000028F8D01148FEF7B2F800BF17493F3170
:1029F0000E48FEF73BF90028F8D00C48FEF7A7F880
:102A0000A07000BF11493F310848FEF72FF9002898
:102A1000F8D00648FEF79BF800210448FEF75DF861
:102A200001210248FEF74DF8642047E000580040BD
:102A30007644CF7701405F3F00001840D7A3703D38
:102A40000AF7653FCDCCCCCCCC6C47C0010003006D
:102A5000820007001E460008257320646174615BD4
:102A6000305D3D25642C646174615B315D3D25649E
:102A70002C636865636B73756D3D25642C743D250F
:102A8000660D0A00257320646174615B305D3D252D
:102A9000642C646174615B315D3D25642C63686501
:102AA000636B73756D3D25642C72683D2566250D3D
:102AB0000A00000025732025640D0A0000F0BEFC0A
:102AC00001217A48FDF7F1FF00BF79497748FEF709
:102AD000CDF80028F9D0E9B200227448FEF73BF89F
:102AE00000BF74497148FEF7C1F80028F9D0FC21F5
:102AF0006E48FEF72AF800BF6E49891C6B48FEF746
:102B0000B5F80028F8D0C9216848FEF71EF800BFC4
:102B10006849891C6548FEF7A9F80028F8D06420A8
:102B200000F08CFC01216148FDF7BFFF00BF604948
:102B30005E48FEF79BF80028F9D0E9B201225B4815
:102B4000FEF709F800BF5A49491C5848FEF78EF8AD
:102B50000028F8D000BF56493F315448FEF786F8A8
:102B60000028F8D05148FDF7F2FF607000BF5049CF
:102B70003F314E48FEF77AF80028F8D04B48FDF771
:102B8000E6FF207000BF4A493F314848FEF76EF823
:102B90000028F8D04548FDF7DAFF00BF44493F312F
:102BA0004248FEF763F80028F8D04048FDF7CFFF11
:102BB000E07100BF3E493F313C48FEF757F800281E
:102BC000F8D03A48FDF7C3FFA07100BF38493F3144
:102BD0003648FEF74BF80028F8D03448FDF7B7FF29
:102BE00000213248FDF779FF01213048FDF769FFE8
:102BF0004FF4B672304931A001F060F8002605E0CC
:102C0000A15D35A001F05AF8701C46B2082EF7DB22
:102C100033A001F053F83846BDE8F08186B00324B4
:102C2000C822304930A001F049F83EE0FFF7C0FB70
:102C3000FFF702FDC82000F001FC0021E320FFF7B0
:102C40006AFD4FF47A7000F0F9FB40F2DC5000F0BE
:102C5000F5FB40F2DC5000F0F1FB0021E520FFF72E
:102C60005AFD40F2DC5000F0E9FB01A8FFF723FE1B
:102C700040F2DC5000F0E2FBFFF7DEFC40F2DC50FB
:102C800000F0DCFB2046FFF7E3FC40F2DC5000F0F4
:102C9000D5FBFFF7D1FC40F2DC5000F0CFFBFFF793
:102CA000C3FC40F2DC5000F0C9FBBFE70058004015
:102CB0000100030082000700394600082573202523
:102CC0006420753853657269616C4E756D6265720A
:102CD0003A200D0A0000000030782578200000001E
:102CE0000D0A00002E46000825732025640A000006
:102CF00070B505460C4675B110211748FDF77BFDF0
:102D000004F0010088B10020144908701021124815
:102D1000FDF76FFD09E004F0010030B101200F491B
:102D2000087010210C48FDF766FD70BD08B5012143
:102D30000420FEF76FF910208DF80300ADF80000B5
:102D400003208DF8020069460348FDF7A5FC012128
:102D50000846FFF7CDFF08BD00080140280000200D
:102D6000002107E0002100E0491C42F6E0629142A8
:102D7000FAD3401E0028F5D1704708B5012108207C
:102D8000FEF748F94FF47070ADF8000003208DF89D
:102D9000020010208DF8030069464648FDF77CFCD0
:102DA00008BD70B505460C4685B340214148FDF786
:102DB00020FD80213F48FDF71CFD4FF480713D4808
:102DC000FDF717FD4FF400713A48FDF712FD04F0CE
:102DD000010018B140213748FDF70DFD04F0020055
:102DE00018B180213348FDF706FD04F0040020B13E
:102DF0004FF480712F48FDF7FEFC04F0080020B36B
:102E00004FF400712B48FDF7F6FC1EE0FFE704F0DD
:102E1000010018B140212748FDF7EBFC04F0020047
:102E200018B180212348FDF7E4FC04F0040020B130
:102E30004FF480711F48FDF7DCFC04F0080020B15E
:102E40004FF400711B48FDF7D4FC70BD10B5402154
:102E50001848FDF7C1FC18B101201749087002E0BD
:102E600000201549087080211248FDF7B5FC18B103
:102E700001201249087002E00020104908704FF448
:102E800080710C48FDF7A8FC18B101200C490870AE
:102E900002E000200A4908704FF400710548FDF770
:102EA0009BFC18B101200749087002E00020054989
:102EB000087010BD000C0140290000202C000020EB
:102EC0002A0000202B00002030B589B005460C46B2
:102ED00001210220FEF7ABF801210420FEF79AF849
:102EE0004020ADF8200018208DF8230003208DF835
:102EF000220008A91A48FDF7CFFBADF81850ADF82D
:102F000014400020ADF81A00ADF8160005A91548C8
:102F1000FEF7C0FB6020ADF804000120ADF806000C
:102F20000020ADF80A00ADF80C0001A90D48FEF72D
:102F3000EEFB08210B48FFF739F801210948FFF79C
:102F400005F801210748FEF70DFF01210548FEF7AE
:102F5000FDFE40F2DF2003493431088009B030BD66
:102F6000000801400004004008B501210820FEF7D8
:102F700051F828208DF8030002208DF80200082067
:102F8000ADF8000069460248FDF786FB08BD000069
:102F9000000C014000B587B0012144F20400FEF7A7
:102FA00039F84FF40070ADF8180018208DF81B00A8
:102FB00003208DF81A0006A93148FDF76DFB4FF488
:102FC0008060ADF8180004208DF81B0006A92C487D
:102FD000FDF762FB4FF4E13002900020ADF80C00E9
:102FE000ADF80E00ADF81000ADF814000C20ADF8EF
:102FF000120002A92348FEF7B8F801212148FEF784
:1030000040F9002240F225511E48FEF746F92520DE
:103010008DF8040001208DF805008DF806008DF86C
:10302000070001A8FDF76FFA07B000BD2DE9F041D8
:1030300007460C46154600260DE014F8011B3846DD
:10304000FEF78CF900BF40213846FEF7F5F900285D
:10305000F9D0701CC6B2AE42EFDBBDE8F08170B5AE
:1030600004460D46E1B20748FEF778F900BF80211B
:103070000448FEF7E1F90028F9D0204670BD0000B1
:10308000000801400038014000B587B0012104204C
:10309000FDF7C0FF01214804FDF7C9FF0420ADF88A
:1030A000180018208DF81B0003208DF81A0006A9BF
:1030B0004B48FDF7F1FA0820ADF8180004208DF810
:1030C0001B0006A94648FDF7E7FA4FF4E1300290ED
:1030D0000020ADF80C00ADF80E00ADF81000ADF812
:1030E00014000C20ADF8120002A93E48FEF73DF88E
:1030F00001213C48FEF7C5F8012240F2255139482C
:10310000FEF7CBF826208DF8040003208DF805008B
:1031100002208DF8060001208DF8070001A8FDF7B8
:10312000F2F907B000BD10B54FF480612E4800F0F1
:103130006EFA00202D49086010BD2DE9F0410746C8
:103140000C46154640213846FEF783F900260DE06F
:1031500014F8011B3846FEF701F900BF402138463C
:10316000FEF76AF90028F9D0701CC6B2AE42EFDB58
:10317000BDE8F081F8B504460E4615461EE0FFF79F
:10318000D2FF204600F06CFAC7B23A4621461548F5
:10319000FFF7D3FF284600F051F913482346632276
:1031A0001349009013A000F089FD31460E4800F04D
:1031B00045FA00B103E0642000F040F9DFE700BF0A
:1031C000F8BD0A480068704770B505460C4625B141
:1031D00022460549284600F001FAFFF7A4FF70BD1A
:1031E00000080140004400403C0000203400002062
:1031F0004F460008257320256420636D643A2573CB
:103200002C7273703A25730A000000002DE9F04318
:103210009DB004460F4615461E46DDF89080642199
:1032200004A800F0F4F900200190029003902070AF
:103230004346324635A104A800F050FD04A800F032
:103240000FFA81464A4633A101A800F047FD32A19A
:10325000204600F0E7F92946204600F0E3F932A1C4
:10326000204600F0DFF938A1204600F0DBF93946AE
:10327000204600F0D7F937A1204600F0D3F936A157
:10328000204600F0CFF93AA1204600F0CBF901A981
:10329000204600F0C7F93AA1204600F0C3F904A97E
:1032A000204600F0BFF9204600F0DAF91DB0BDE875
:1032B000F0832DE9F04393B004460D4616461F46B1
:1032C000DDF86880342106A800F0A1F90020039001
:1032D00004900590207033462A462BA106A8CDE91C
:1032E000007800F0FBFC06A800F0BAF981464A46D7
:1032F00008A103A800F0F2FC06A9204600F092F90C
:10330000204600F0ADF913B0BDE8F0832C3B2573E7
:103310002C25730025640000504F5354202F646502
:1033200076696365732F00002F64617461706F6943
:103330006E74733F747970653D3520485454502F36
:10334000312E310D0A0000006170692D6B65793AEC
:10335000000000000D0A0000486F73743A61706944
:103360002E6865636C6F7564732E636F6D0D0A0054
:10337000436F6E74656E742D4C656E6774683A00A9
:103380000D0A0D0A000000007B2274656D223A22AE
:103390002573222C2268756D223A222573222C2255
:1033A00066656E67223A222573222C22696E646F4D
:1033B0006F72223A222573227D00000070B5054607
:1033C0000E4600240BE0295D27A000F077FC601C6E
:1033D00000F0070010B926A000F070FC641CB44295
:1033E000F1D323A000F06AFC70BD0146092903DC7B
:1033F00001F13000C0B270470A2905DB0F2903DC58
:1034000001F13700C0B2F6E73020F4E770B50246AC
:103410000C46FF25FF2309E012F8010B80EA0301A7
:103420001448405C80EA05031348455C201EA4F163
:103430000106B4B2F0D143EA052070BD002107E0D7
:10344000002100E0491C42F6E0629142FAD3401E9E
:103450000028F5D1704704E000BF00BF00BF00BFE7
:10346000401E0028F8D17047253032582000000057
:103470000D0A0000574600085747000808B501210B
:103480000820FDF7C7FD2020ADF8000003208DF8CF
:10349000020010208DF8030069462448FDF7FCF86F
:1034A00020212248FDF7A7F96420FFF7C7FF20215C
:1034B0001E48FDF79EF96420FFF7C0FF08BD10B558
:1034C000FFF7DCFF4FF47A7219A11AA0FFF752FE42
:1034D0004FF47A7216A119A0FFF74CFE4FF4FA626E
:1034E00013A11AA0FFF746FE4FF47A7210A11AA09A
:1034F000FFF740FE4FF4FA620DA11AA0FFF73AFE63
:103500004FF4FA620AA121A0FFF734FE4FF47A7259
:1035100007A129A0FFF72EFE4FF47A722AA12BA053
:10352000FFF728FEFFF7FFFD10BD0000000C014073
:103530004F4B000041540D0A0000000041542B4342
:10354000574D4F44453D330D0A00000041542B5266
:1035500053540D0A0000000041542B434946535276
:103560000D0A000041542B43574A41503D2233324B
:103570003032526F75746572222C223133363035F9
:10358000363237393434220D0A00000041542B43BF
:10359000495053544152543D22544350222C22311D
:1035A00039322E3136382E39392E313238222C34F8
:1035B0003030310D0A00000041542B4349504D4F2B
:1035C00044453D310D0A00003E00000041542B43AC
:1035D000495053454E440D0A0000000040EA0103E3
:1035E0009B0703D009E008C9121F08C0042AFAD2B9
:1035F00003E011F8013B00F8013B521EF9D270477D
:10360000D2B201E000F8012B491EFBD27047002224
:10361000F6E710B513460A4604461946FFF7F0FFD1
:10362000204610BD421E12F8013F002BFBD111F8BD
:10363000013B02F8013B002BF9D1704730B505463C
:103640002A460B4612F8010B13F8014B08B1A042B1
:10365000F8D01CB1002802D06D1CF1E7284630BD1F
:10366000421C10F8011B0029FBD1801A70472DE97C
:10367000FE4F804681EA0300C00F0C46009021F007
:10368000004123F00045B8EB0200A94105D24046B5
:10369000214690461C460B46024623F0004010434C
:1036A00047D0270DC7F30A00C3F30A510290401A0E
:1036B000019040286BDAC3F3130040F4801B00989C
:1036C000924620B10023D2EB030A63EB0B0B019867
:1036D0005946C0F14002504600F07AF906460D46C0
:1036E00050465946019A00F082F910EB08006141FA
:1036F000002487EA115284EAE7731A4340D0009A03
:1037000062B3019A012A4FEA075215DC001B61EBF4
:1037100002014FF0004202EA0752CDE90042001CCC
:1037200041F5801132462B4600F0B9F903B0BDE8EF
:10373000F08F40462146F9E7001B61EB0201001CB7
:1037400041F5801300185B412018A2F5001747EBE4
:10375000030140EAD570B6196D4111E06D084FEADA
:10376000360645EAC0754FEA0752001B61EB0201BD
:10377000001C41F5801149084FEA30000019514101
:1037800032462B4603B0BDE8F04F00F079B90098FF
:10379000012240000023D0EB020263EBE0730098AB
:1037A00021464FEAE074B8EB000061EB0401E9E761
:1037B00083F000435BE781F0004158E72DE9FE4FBD
:1037C00081EA030404F0004421F0004100944FF02A
:1037D000000B23F0004350EA01045ED052EA0304D8
:1037E0005BD0C3F30A54C1F30A552C44A4F2F3345A
:1037F0000194A0FB0254C1F3130141F48011C3F3FF
:10380000130343F4801301FB024400FB034E840ABC
:10381000970A44EA815447EA8357A4FB0768029554
:103820008D0A05FB07854FEA932C04FB0C542705F2
:10383000029D4FEA065847EA1637B5EB08056EEBCE
:10384000070C870E920E47EA811742EA8312A7FB04
:103850000201B6EB0B0164EB00042B0D43EA0C33C1
:103860005E1844EB1C50DA465146E7FB0201C5F3F3
:1038700013044FEA0B3343EA14534FEA0432019C1A
:1038800043EA0603A4F10C040294009CCDE900B4C1
:1038900000F005F903B0BDE8F08F00200146F9E71C
:1038A000C10F80EAE0700844CA079623002100F0A7
:1038B000B9B896230022114600F0B4B820F00040B9
:1038C000C10DC0F3160040F400007F2901DA00208A
:1038D0007047962903DCC1F19601C84070479639BC
:1038E0008840704700F0004230F000400AD0C10D1F
:1038F00001F56071C0F3160042EA0151C2084007A9
:103900001143704700200146704701F0004330B476
:1039100021F0004150EA010206D00A0DA2F56072C2
:10392000C1F31301002A02DC30BC00207047440FB1
:1039300044EAC104C100E01830BC00EBC25000F002
:1039400068B830B50B46014600202022012409E06A
:1039500021FA02F59D4205D303FA02F5491B04FA48
:1039600002F52844151EA2F10102F1DC30BD2DE95B
:10397000F05F0546002092469B46884606468146F3
:1039800040241BE0284641464746224600F086F97F
:1039900053465A46C01A914110D311461846224642
:1039A00000F016F82D1A67EB01084F462246012059
:1039B000002100F00DF817EB00094E41201EA4F184
:1039C0000104DFDC484631462A464346BDE8F09F05
:1039D000202A04DB203A00FA02F1002070479140CF
:1039E000C2F1200320FA03F3194390407047202AC4
:1039F00006DBCB17203A41FA02F043EAE07306E017
:103A000041FA02F3D040C2F1200291400843194626
:103A100070470029A8BF7047401C490008BF20F02C
:103A20000100704710B4B0FA80FC00FA0CF050EAC4
:103A3000010404BF10BC704749B1CCF1200421FA45
:103A400004F411FA0CF118BF012121430843A3EB40
:103A50000C01CB1D4FEA00614FEA102042BF00204D
:103A600010BC704700EBC35010440029A4BF10BC29
:103A70007047401C490008BF20F0010010BC70478F
:103A800010B5141E73F1000408DA401C41F1000166
:103A900092185B411A4301D120F0010010BD2DE9BD
:103AA000F04D92469B4611B1B1FA81F202E0B0FAB4
:103AB00080F220329046FFF78BFF04460F4640EA23
:103AC0000A0041EA0B0153465A46084313D01146F7
:103AD00053EA010019D0C8F14002504600F0DEF868
:103AE00005460E46504659464246FFF771FF0843C9
:103AF00005D0012004E020463946BDE8F08D0020C5
:103B0000054346EAE0762C4337430A986305E40A06
:103B1000A0EB08000022FD0A44EA47540A3002D50F
:103B200000200146E9E7010510196941DDE9084572
:103B300000196941BDE8F04DA2E72DE9F04D81EA99
:103B4000030404F0004B21F0004514464FF0000A36
:103B500023F0004150EA050220D054EA01021DD0B2
:103B6000C5F30A570246C5F31303C1F31300C1F3AB
:103B70000A5640F4801543F48013A7EB0608101B87
:103B8000D64608F2FD3873EB050002D308F10108B0
:103B900001E092185B41B8F1000F03DA0020014602
:103BA000BDE8F08D00204FF48011064684460EE0FB
:103BB000171B73EB050705D3121B63EB05030643C5
:103BC0004CEA010C49084FEA300092185B4150EA78
:103BD0000107EDD152EA030012D082EA040083EA21
:103BE0000501084305D0101BAB4106D2012200237A
:103BF00006E000224FF0004302E06FF00102531094
:103C00001AEB06004CEB085110EB0A0041EB0B01DC
:103C1000BDE8F04DFFF734BFC1F30A52C1F3130101
:103C200040F2FF3341F480119A4202DA002001464B
:103C3000704740F233439A42A2F2334202DC5242CE
:103C400000F02CB8FFF7C4BE30B5041E71F10004BB
:103C500004DB4FF00044404264EB0101141E73F199
:103C6000000405DB1C464FF00043524263EB0403A3
:103C7000994208BF904230BD064C074D06E0E0680F
:103C800040F0010394E8070098471034AC42F6D3A3
:103C9000FCF730FABC480008DC480008202A04DBA6
:103CA000203A21FA02F00021704721FA02F3D040B5
:103CB000C2F1200291400843194670470FB4054BEA
:103CC00010B503A9044A029800F0EEF810BC5DF8A4
:103CD00014FB00005F300008380000200FB4084BD0
:103CE00010B504A902AA039800F0DEF8044602A960
:103CF000002000F070FC204610BC5DF814FB0000B2
:103D0000D745000802E008C8121F08C1002AFAD1EE
:103D100070477047002001E001C1121F002AFBD14B
:103D2000704700002DE9FF5F82B00021DDE904301B
:103D3000020DDDF840B0034318D044F61050A2F253
:103D4000FF3242431514119801281FD0A5EB0B0038
:103D5000401C5FEA000A4FF000064E4FDFF8389132
:103D6000B046504615D5CAF1000413E0119801245D
:103D70004AA3012801D16FEA0B010298119AC0E908
:103D80000031C0E9024206B0BDE8F09FCBF100006F
:103D9000DFE704460021404A491842EB0450CDE9D0
:103DA000001012E0E00707D032463B464046494645
:103DB000FFF704FD8046894632463B4610461946C9
:103DC000FFF7FCFC06460F466410002CEAD1DDE943
:103DD0000401DDE90023BAF1000F06DAFFF7EEFC7B
:103DE00042464B46FFF7EAFC05E0FFF7A6FE4246D7
:103DF0004B46FFF7A2FE04460E460022284BFFF773
:103E000023FF03D84FF0FF30014607E00022254B87
:103E100020463146FFF72BFCFFF7FEFE102409E099
:103E2000002C0ADB0A220023FFF7A1FD039B30329E
:103E30001A55641E50EA0102F2D1641C039AC4F1BF
:103E400011031444119A012A03D0012208430DD111
:103E50000AE0084304D000204FF0110B119072E7E4
:103E6000A3EB0B056D1E0DE05B4504DD4FF000027A
:103E700005F1010504E003DA4FF00002A5F10105A8
:103E8000002AECD002981199C0E90231C0E900453E
:103E900079E70000000014400000F03F300000000F
:103EA0000000F0430000E03F2DE9FF4F95B09B4636
:103EB0008946064600250FE2252877D100242746AB
:103EC000F84A0121059400E0044316F8013F203B25
:103ED00001FA03F01042F7D130782A2811D06FF0A0
:103EE0002F033078A0F13002092A16D8059A44F041
:103EF000020402EB820203EB42021044761C05909E
:103F0000EFE759F8042B0592002A03DA504244F4F3
:103F10000054059044F00204761C30782E2816D107
:103F200016F8010F44F004042A280DD06FF02F0278
:103F30003078A0F13003092B09D807EB870302EB97
:103F40004303C718761CF3E759F8047B761C3078D6
:103F50006C280FD006DC4C2817D068280DD06A28B2
:103F600014D104E0742810D07A280FD10DE044F465
:103F700000140AE044F4801401E044F44014727820
:103F8000824202D104F58014761C761C30786628B3
:103F90000BD013DC582877D009DC002875D04528D1
:103FA000F6D04628F4D047281AD19DE118E06328BE
:103FB00035D0642879D0652812D195E1702873D066
:103FC00008DC6728F1D069286FD06E280DD06F28E3
:103FD00006D1B5E073282CD0752875D0782874D018
:103FE0005A46179990476D1C75E1C4F30250022898
:103FF00009D003280DD0D9F8001004280DD00D6089
:1040000009F1040967E1D9F80010EA17C1E9005283
:10401000F6E7D9F800100D80F2E70D70F0E719F817
:10402000041B8DF8001000208DF80100EA460120E5
:1040300003E059F804AB4FF0FF3061074FF0000187
:1040400002D40DE008F101018846B9420FDA80453B
:10405000F8DB1AF808100029F4D108E008F1010192
:1040600088468142FADB1AF808100029F6D1059833
:104070005B46A0EB080721463846179A00F094FAF1
:10408000284400EB080507E04DE029E10DE01AF8AF
:10409000010B5A4617999047B8F10108F7D25B46D1
:1040A00021463846179A13E142E00A220092C4F3EF
:1040B00002524FF0000A022A08D059F804CB032A12
:1040C0004FEAEC710AD00DE029E02AE009F107017E
:1040D00021F00702F2E802C1914609E00FFA8CFCD8
:1040E0004FEAEC71042A03D14FFA8CFC4FEAEC71D1
:1040F000002907DA0A460021DCF1000C61EB02011D
:104100002D2202E0220504D52B228DF80420012265
:1041100003E0E20701D02022F7E7904659E00A21A8
:1041200002E010220DE010214FF0000A00910BE098
:1041300010224FF0000A44F004040827009203E024
:1041400008224FF0000A0092C4F30252022A05D05E
:1041500059F804CB0021032A08D009E009F107012E
:1041600021F00702F2E802C1914605E01FFA8CFC3B
:10417000042A01D10CF0FF0C4FF00008220728D5CB
:10418000702806D0009B83F0100353EA0A0305D081
:104190000EE040228DF80420012208E05CEA0102D2
:1041A00006D030228DF804208DF8050002229046BA
:1041B000009B83F0080353EA0A030AD15CEA010278
:1041C00001D1620705D530228DF804204FF0010897
:1041D0007F1E582804D034A003900EA802900DE052
:1041E00036A0F9E753466046009AFFF7C0FB8446C5
:1041F0000398825C0298401E029002705CEA010003
:10420000F0D1029806A9081A00F1200A600702D529
:1042100024F4803400E00127574502DDA7EB0A00B3
:1042200000E0002000EB0A01009005984144401A8C
:104230000590E00306D45B462146179A059800F0E6
:10424000B3F90544002706E001A85A46C05D179956
:1042500090476D1C7F1C4745F6DBE0030CD55B46A1
:104260002146179A059800F09FF9054404E0302094
:104270005A46179990476D1C0099481E00900029D6
:10428000F5DC08E0029802995A460078491C029130
:10429000179990476D1CBAF10001AAF1010AF1DCEF
:1042A00065E10000092801003031323334353637FA
:1042B0003839616263646566000000003031323372
:1042C0003435363738394142434445460000000012
:1042D00000F058F90544761C307800287FF4ECADE6
:1042E00019B02846BDE8F08F620700D4062709F10F
:1042F000070222F0070CFCE80223E14603F0004825
:104300005FEA080C02D00FF2702C0DE05FEA045C4B
:1043100002D50FF2682C07E05FEAC47C02D00FF2EE
:10432000602C01E0AFF2700C4FF0FF3823F0004337
:10433000CDF850C065280CD006DC452809D04628A9
:104340001DD047283DD13DE0662818D067287ED192
:1043500038E00021112F01DB112000E0781CCDE9AD
:10436000000106A90EA8FFF7DDFCDDE90F010E9A9A
:1043700003910021009207F1010A04914DE04FF0F2
:1043800000400097CDE9011006A90EA8FFF7CAFC6E
:10439000DDE90F0203920E9B11990022DDF80CA0BB
:1043A0000093049211B9791C00EB010AB7EB0A00E3
:1043B00004D4C0F1FF3007F1010A0490AAEB070012
:1043C000019044E0012F00DA01270021112F01DDC7
:1043D000112000E03846CDE9000106A90EA8FFF73C
:1043E000A1FCDDE90F010E9A0391002104910092D6
:1043F000BA4621070CD40399514500DA8A46BAF12E
:10440000010F05DD009AAAF10101515C302908D0A5
:10441000B84202DA10F1040F06DA0121CDE90110E9
:1044200015E0AAF10101E9E7002805DC049901443F
:104430000491AAEB000102E0411C514500DD8A46CF
:104440000499401A401C01904FF000400290200750
:1044500004D40198504501DBCDF8048000208DF88C
:104460004F0002980DF14F07B0F1004F25D02B20DF
:104470000E9002984FF0020800280CDA4042029099
:104480002D200E9007E00A210298FFF75AFA3031EA
:10449000029007F8011DB8F10001A8F10108F2DC53
:1044A00002980028EFD1791E0E980870307800F03D
:1044B000200040F0450007F8020D12A8C01B00F1D3
:1044C00007081498007800B1012000EB0A01019858
:1044D00001EBE07105984144401A401E0590E0034D
:1044E00006D45B462146179A059800F05DF805440E
:1044F0001498007818B15A46179990476D1CE0033C
:1045000024D55B462146179A059800F04DF80544DE
:104510001CE00498002807DBDDE90301884203DD85
:104520000098405C179901E0179930205A4690474F
:10453000049805F10105401C04900198401E01906B
:1045400004D12E205A46179990476D1CBAF10001EC
:10455000AAF1010ADDDC05E017F8010B5A461799AC
:1045600090476D1CB8F10001A8F10108F4DC5B462E
:104570002146179A0598ABE62D0000002B0000009D
:10458000200000002DE9F041044600251E46174694
:10459000880404D405E039462020B0476D1C641E11
:1045A000F9D52846BDE8F0812DE9F0410446002503
:1045B0001E469046C80301D5302700E02027880416
:1045C00004D505E041463846B0476D1C641EF9D558
:1045D0002846BDE8F0810A68531C0B6010707047D4
:1045E0004750494F5F4932435F436F6E6669677555
:1045F000726174696F6E0048616C5F4932435F4954
:104600006E697400436865636B5F4932435F44655C
:10461000766963655F5265616479000031015348D2
:104620005432785F4D656173757265484D0053482B
:104630005432305F6C6F6F700053485432785F476C
:10464000657453657269616C4E756D626572005375
:10465000656E64436D640000C1814001C08041010A
:10466000C0804100C1814001C0804100C181400043
:10467000C1814001C0804101C0804100C181400032
:10468000C1814001C0804100C1814001C080410121
:10469000C0804100C1814001C0804100C181400013
:1046A000C1814001C0804100C1814001C080410101
:1046B000C0804100C1814000C1814001C0804101F2
:1046C000C0804100C1814001C0804100C1814000E3
:1046D000C1814001C0804101C0804100C1814000D2
:1046E000C1814001C0804100C1814001C0804101C1
:1046F000C0804100C1814000C1814001C0804101B2
:10470000C0804100C1814001C0804100C1814000A2
:10471000C1814001C0804100C1814001C080410190
:10472000C0804100C1814001C0804100C181400082
:10473000C1814001C0804101C0804100C181400071
:10474000C1814001C0804100C1814001C080410160
:10475000C0804100C1814000C0C101C30302C2C684
:104760000607C705C5C404CC0C0DCD0FCFCE0E0A6D
:10477000CACB0BC90908C8D81819D91BDBDA1A1E0D
:10478000DEDF1FDD1D1CDC14D4D515D71716D6D2DD
:104790001213D311D1D010F03031F133F3F232369D
:1047A000F6F737F53534F43CFCFD3DFF3F3EFEFAAD
:1047B0003A3BFB39F9F83828E8E929EB2B2AEAEEED
:1047C0002E2FEF2DEDEC2CE42425E527E7E626221D
:1047D000E2E323E12120E0A06061A163A3A262667D
:1047E000A6A767A56564A46CACAD6DAF6F6EAEAAED
:1047F0006A6BAB69A9A86878B8B979BB7B7ABABE8D
:104800007E7FBF7DBDBC7CB47475B577B7B676725C
:10481000B2B373B17170B05090915193535292965C
:10482000565797559594549C5C5D9D5F9F9E5E5A2C
:104830009A9B5B99595898884849894B8B8A4A4E6C
:104840008E8F4F8D4D4C8C4484854587474686829C
:10485000424383418180400025730D0A20796F75A2
:10486000206D7573742063616C6C207468697320AB
:1048700066756E6320666972737420746F206D6153
:104880006B65207375726520796F7572206465762B
:104890002065786973742C6F7220493243207769E0
:1048A0006C6C206C6F6F7020696E207768696C6526
:1048B000287761697429200D0A000000DC4800088F
:1048C000000000203C000000043D000818490008DA
:1048D0003C00002004080000143D000800A24A0427
:1048E00000000000000000000102030406070809A0
:1048F0000000000001020304010203040607080986
:104900000204060800000000000000000000000093
:0849100000000000000000009F
:04000005080000ED02
:00000001FF
